{
  "_format": "hh-sol-artifact-1",
  "contractName": "NFTMarketplace",
  "sourceName": "contracts/NFTMarketplace.sol",
  "abi": [
    {
      "inputs": [],
      "stateMutability": "nonpayable",
      "type": "constructor"
    },
    {
      "inputs": [
        {
          "internalType": "address",
          "name": "sender",
          "type": "address"
        },
        {
          "internalType": "uint256",
          "name": "tokenId",
          "type": "uint256"
        },
        {
          "internalType": "address",
          "name": "owner",
          "type": "address"
        }
      ],
      "name": "ERC721IncorrectOwner",
      "type": "error"
    },
    {
      "inputs": [
        {
          "internalType": "address",
          "name": "operator",
          "type": "address"
        },
        {
          "internalType": "uint256",
          "name": "tokenId",
          "type": "uint256"
        }
      ],
      "name": "ERC721InsufficientApproval",
      "type": "error"
    },
    {
      "inputs": [
        {
          "internalType": "address",
          "name": "approver",
          "type": "address"
        }
      ],
      "name": "ERC721InvalidApprover",
      "type": "error"
    },
    {
      "inputs": [
        {
          "internalType": "address",
          "name": "operator",
          "type": "address"
        }
      ],
      "name": "ERC721InvalidOperator",
      "type": "error"
    },
    {
      "inputs": [
        {
          "internalType": "address",
          "name": "owner",
          "type": "address"
        }
      ],
      "name": "ERC721InvalidOwner",
      "type": "error"
    },
    {
      "inputs": [
        {
          "internalType": "address",
          "name": "receiver",
          "type": "address"
        }
      ],
      "name": "ERC721InvalidReceiver",
      "type": "error"
    },
    {
      "inputs": [
        {
          "internalType": "address",
          "name": "sender",
          "type": "address"
        }
      ],
      "name": "ERC721InvalidSender",
      "type": "error"
    },
    {
      "inputs": [
        {
          "internalType": "uint256",
          "name": "tokenId",
          "type": "uint256"
        }
      ],
      "name": "ERC721NonexistentToken",
      "type": "error"
    },
    {
      "anonymous": false,
      "inputs": [
        {
          "indexed": true,
          "internalType": "address",
          "name": "owner",
          "type": "address"
        },
        {
          "indexed": true,
          "internalType": "address",
          "name": "approved",
          "type": "address"
        },
        {
          "indexed": true,
          "internalType": "uint256",
          "name": "tokenId",
          "type": "uint256"
        }
      ],
      "name": "Approval",
      "type": "event"
    },
    {
      "anonymous": false,
      "inputs": [
        {
          "indexed": true,
          "internalType": "address",
          "name": "owner",
          "type": "address"
        },
        {
          "indexed": true,
          "internalType": "address",
          "name": "operator",
          "type": "address"
        },
        {
          "indexed": false,
          "internalType": "bool",
          "name": "approved",
          "type": "bool"
        }
      ],
      "name": "ApprovalForAll",
      "type": "event"
    },
    {
      "anonymous": false,
      "inputs": [
        {
          "indexed": false,
          "internalType": "uint256",
          "name": "_fromTokenId",
          "type": "uint256"
        },
        {
          "indexed": false,
          "internalType": "uint256",
          "name": "_toTokenId",
          "type": "uint256"
        }
      ],
      "name": "BatchMetadataUpdate",
      "type": "event"
    },
    {
      "anonymous": false,
      "inputs": [
        {
          "indexed": true,
          "internalType": "uint256",
          "name": "tokenId",
          "type": "uint256"
        },
        {
          "indexed": false,
          "internalType": "address",
          "name": "seller",
          "type": "address"
        },
        {
          "indexed": false,
          "internalType": "address",
          "name": "owner",
          "type": "address"
        },
        {
          "indexed": false,
          "internalType": "uint256",
          "name": "price",
          "type": "uint256"
        },
        {
          "indexed": false,
          "internalType": "bool",
          "name": "sold",
          "type": "bool"
        }
      ],
      "name": "MarketItemCreated",
      "type": "event"
    },
    {
      "anonymous": false,
      "inputs": [
        {
          "indexed": true,
          "internalType": "uint256",
          "name": "tokenId",
          "type": "uint256"
        },
        {
          "indexed": false,
          "internalType": "address",
          "name": "seller",
          "type": "address"
        },
        {
          "indexed": false,
          "internalType": "address",
          "name": "owner",
          "type": "address"
        },
        {
          "indexed": false,
          "internalType": "uint256",
          "name": "price",
          "type": "uint256"
        },
        {
          "indexed": false,
          "internalType": "bool",
          "name": "sold",
          "type": "bool"
        }
      ],
      "name": "MarketItemUpdated",
      "type": "event"
    },
    {
      "anonymous": false,
      "inputs": [
        {
          "indexed": false,
          "internalType": "uint256",
          "name": "_tokenId",
          "type": "uint256"
        }
      ],
      "name": "MetadataUpdate",
      "type": "event"
    },
    {
      "anonymous": false,
      "inputs": [
        {
          "indexed": true,
          "internalType": "address",
          "name": "from",
          "type": "address"
        },
        {
          "indexed": true,
          "internalType": "address",
          "name": "to",
          "type": "address"
        },
        {
          "indexed": true,
          "internalType": "uint256",
          "name": "tokenId",
          "type": "uint256"
        }
      ],
      "name": "Transfer",
      "type": "event"
    },
    {
      "inputs": [
        {
          "internalType": "address",
          "name": "to",
          "type": "address"
        },
        {
          "internalType": "uint256",
          "name": "tokenId",
          "type": "uint256"
        }
      ],
      "name": "approve",
      "outputs": [],
      "stateMutability": "nonpayable",
      "type": "function"
    },
    {
      "inputs": [
        {
          "internalType": "address",
          "name": "owner",
          "type": "address"
        }
      ],
      "name": "balanceOf",
      "outputs": [
        {
          "internalType": "uint256",
          "name": "",
          "type": "uint256"
        }
      ],
      "stateMutability": "view",
      "type": "function"
    },
    {
      "inputs": [
        {
          "internalType": "uint256",
          "name": "tokenId",
          "type": "uint256"
        }
      ],
      "name": "createMarketSale",
      "outputs": [],
      "stateMutability": "payable",
      "type": "function"
    },
    {
      "inputs": [
        {
          "internalType": "string",
          "name": "tokenURI",
          "type": "string"
        },
        {
          "internalType": "uint256",
          "name": "price",
          "type": "uint256"
        }
      ],
      "name": "createToken",
      "outputs": [
        {
          "internalType": "uint256",
          "name": "",
          "type": "uint256"
        }
      ],
      "stateMutability": "payable",
      "type": "function"
    },
    {
      "inputs": [],
      "name": "fetchItemsListed",
      "outputs": [
        {
          "components": [
            {
              "internalType": "uint256",
              "name": "tokenId",
              "type": "uint256"
            },
            {
              "internalType": "address payable",
              "name": "seller",
              "type": "address"
            },
            {
              "internalType": "address payable",
              "name": "owner",
              "type": "address"
            },
            {
              "internalType": "uint256",
              "name": "price",
              "type": "uint256"
            },
            {
              "internalType": "bool",
              "name": "sold",
              "type": "bool"
            }
          ],
          "internalType": "struct NFTMarketplace.MarketItem[]",
          "name": "",
          "type": "tuple[]"
        }
      ],
      "stateMutability": "view",
      "type": "function"
    },
    {
      "inputs": [],
      "name": "fetchMarketItems",
      "outputs": [
        {
          "components": [
            {
              "internalType": "uint256",
              "name": "tokenId",
              "type": "uint256"
            },
            {
              "internalType": "address payable",
              "name": "seller",
              "type": "address"
            },
            {
              "internalType": "address payable",
              "name": "owner",
              "type": "address"
            },
            {
              "internalType": "uint256",
              "name": "price",
              "type": "uint256"
            },
            {
              "internalType": "bool",
              "name": "sold",
              "type": "bool"
            }
          ],
          "internalType": "struct NFTMarketplace.MarketItem[]",
          "name": "",
          "type": "tuple[]"
        }
      ],
      "stateMutability": "view",
      "type": "function"
    },
    {
      "inputs": [],
      "name": "fetchMyNFTs",
      "outputs": [
        {
          "components": [
            {
              "internalType": "uint256",
              "name": "tokenId",
              "type": "uint256"
            },
            {
              "internalType": "address payable",
              "name": "seller",
              "type": "address"
            },
            {
              "internalType": "address payable",
              "name": "owner",
              "type": "address"
            },
            {
              "internalType": "uint256",
              "name": "price",
              "type": "uint256"
            },
            {
              "internalType": "bool",
              "name": "sold",
              "type": "bool"
            }
          ],
          "internalType": "struct NFTMarketplace.MarketItem[]",
          "name": "",
          "type": "tuple[]"
        }
      ],
      "stateMutability": "view",
      "type": "function"
    },
    {
      "inputs": [
        {
          "internalType": "uint256",
          "name": "tokenId",
          "type": "uint256"
        }
      ],
      "name": "getApproved",
      "outputs": [
        {
          "internalType": "address",
          "name": "",
          "type": "address"
        }
      ],
      "stateMutability": "view",
      "type": "function"
    },
    {
      "inputs": [],
      "name": "getListingPrice",
      "outputs": [
        {
          "internalType": "uint256",
          "name": "",
          "type": "uint256"
        }
      ],
      "stateMutability": "view",
      "type": "function"
    },
    {
      "inputs": [
        {
          "internalType": "address",
          "name": "owner",
          "type": "address"
        },
        {
          "internalType": "address",
          "name": "operator",
          "type": "address"
        }
      ],
      "name": "isApprovedForAll",
      "outputs": [
        {
          "internalType": "bool",
          "name": "",
          "type": "bool"
        }
      ],
      "stateMutability": "view",
      "type": "function"
    },
    {
      "inputs": [],
      "name": "name",
      "outputs": [
        {
          "internalType": "string",
          "name": "",
          "type": "string"
        }
      ],
      "stateMutability": "view",
      "type": "function"
    },
    {
      "inputs": [
        {
          "internalType": "uint256",
          "name": "tokenId",
          "type": "uint256"
        }
      ],
      "name": "ownerOf",
      "outputs": [
        {
          "internalType": "address",
          "name": "",
          "type": "address"
        }
      ],
      "stateMutability": "view",
      "type": "function"
    },
    {
      "inputs": [
        {
          "internalType": "uint256",
          "name": "tokenId",
          "type": "uint256"
        },
        {
          "internalType": "uint256",
          "name": "price",
          "type": "uint256"
        }
      ],
      "name": "resellToken",
      "outputs": [],
      "stateMutability": "payable",
      "type": "function"
    },
    {
      "inputs": [
        {
          "internalType": "address",
          "name": "from",
          "type": "address"
        },
        {
          "internalType": "address",
          "name": "to",
          "type": "address"
        },
        {
          "internalType": "uint256",
          "name": "tokenId",
          "type": "uint256"
        }
      ],
      "name": "safeTransferFrom",
      "outputs": [],
      "stateMutability": "nonpayable",
      "type": "function"
    },
    {
      "inputs": [
        {
          "internalType": "address",
          "name": "from",
          "type": "address"
        },
        {
          "internalType": "address",
          "name": "to",
          "type": "address"
        },
        {
          "internalType": "uint256",
          "name": "tokenId",
          "type": "uint256"
        },
        {
          "internalType": "bytes",
          "name": "data",
          "type": "bytes"
        }
      ],
      "name": "safeTransferFrom",
      "outputs": [],
      "stateMutability": "nonpayable",
      "type": "function"
    },
    {
      "inputs": [
        {
          "internalType": "address",
          "name": "operator",
          "type": "address"
        },
        {
          "internalType": "bool",
          "name": "approved",
          "type": "bool"
        }
      ],
      "name": "setApprovalForAll",
      "outputs": [],
      "stateMutability": "nonpayable",
      "type": "function"
    },
    {
      "inputs": [
        {
          "internalType": "bytes4",
          "name": "interfaceId",
          "type": "bytes4"
        }
      ],
      "name": "supportsInterface",
      "outputs": [
        {
          "internalType": "bool",
          "name": "",
          "type": "bool"
        }
      ],
      "stateMutability": "view",
      "type": "function"
    },
    {
      "inputs": [],
      "name": "symbol",
      "outputs": [
        {
          "internalType": "string",
          "name": "",
          "type": "string"
        }
      ],
      "stateMutability": "view",
      "type": "function"
    },
    {
      "inputs": [
        {
          "internalType": "uint256",
          "name": "tokenId",
          "type": "uint256"
        }
      ],
      "name": "tokenURI",
      "outputs": [
        {
          "internalType": "string",
          "name": "",
          "type": "string"
        }
      ],
      "stateMutability": "view",
      "type": "function"
    },
    {
      "inputs": [
        {
          "internalType": "address",
          "name": "from",
          "type": "address"
        },
        {
          "internalType": "address",
          "name": "to",
          "type": "address"
        },
        {
          "internalType": "uint256",
          "name": "tokenId",
          "type": "uint256"
        }
      ],
      "name": "transferFrom",
      "outputs": [],
      "stateMutability": "nonpayable",
      "type": "function"
    },
    {
      "inputs": [
        {
          "internalType": "uint256",
          "name": "_listingPrice",
          "type": "uint256"
        }
      ],
      "name": "updateListingPrice",
      "outputs": [],
      "stateMutability": "payable",
      "type": "function"
    }
  ],
  "bytecode": "0x60806040526658d15e1762800060095534801561001b57600080fd5b506040518060400160405280601081526020016f4d657461766572736520546f6b656e7360801b815250604051806040016040528060048152602001631351551560e21b81525081600090816100719190610137565b50600161007e8282610137565b5050600a80546001600160a01b03191633179055506101f5565b634e487b7160e01b600052604160045260246000fd5b600181811c908216806100c257607f821691505b6020821081036100e257634e487b7160e01b600052602260045260246000fd5b50919050565b601f82111561013257806000526020600020601f840160051c8101602085101561010f5750805b601f840160051c820191505b8181101561012f576000815560010161011b565b50505b505050565b81516001600160401b0381111561015057610150610098565b6101648161015e84546100ae565b846100e8565b6020601f82116001811461019857600083156101805750848201515b600019600385901b1c1916600184901b17845561012f565b600084815260208120601f198516915b828110156101c857878501518255602094850194600190920191016101a8565b50848210156101e65786840151600019600387901b60f8161c191681555b50505050600190811b01905550565b611ff7806102046000396000f3fe60806040526004361061012a5760003560e01c80636352211e116100ab578063ae677aa31161006f578063ae677aa314610313578063b88d4fde14610326578063be9af53614610346578063c87b56dd14610359578063e219fc7514610379578063e985e9c51461038c57600080fd5b80636352211e1461028b57806370a08231146102ab57806372b3b620146102cb57806395d89b41146102de578063a22cb465146102f357600080fd5b806312e85585116100f257806312e8558514610202578063202e37401461022157806323b872dd1461023657806342842e0e1461025657806345f8fa801461027657600080fd5b806301ffc9a71461012f57806306fdde0314610164578063081812fc14610186578063095ea7b3146101be5780630f08efe0146101e0575b600080fd5b34801561013b57600080fd5b5061014f61014a36600461195c565b6103ac565b60405190151581526020015b60405180910390f35b34801561017057600080fd5b506101796103d7565b60405161015b91906119c9565b34801561019257600080fd5b506101a66101a13660046119dc565b610469565b6040516001600160a01b03909116815260200161015b565b3480156101ca57600080fd5b506101de6101d9366004611a11565b610492565b005b3480156101ec57600080fd5b506101f56104a1565b60405161015b9190611a3b565b34801561020e57600080fd5b506009545b60405190815260200161015b565b34801561022d57600080fd5b506101f561061e565b34801561024257600080fd5b506101de610251366004611abb565b6107d4565b34801561026257600080fd5b506101de610271366004611abb565b610864565b34801561028257600080fd5b506101f5610884565b34801561029757600080fd5b506101a66102a63660046119dc565b610a3a565b3480156102b757600080fd5b506102136102c6366004611af8565b610a45565b6102136102d9366004611ba3565b610a8d565b3480156102ea57600080fd5b50610179610acb565b3480156102ff57600080fd5b506101de61030e366004611bfc565b610ada565b6101de6103213660046119dc565b610ae5565b34801561033257600080fd5b506101de610341366004611c38565b610b5d565b6101de6103543660046119dc565b610b75565b34801561036557600080fd5b506101796103743660046119dc565b610d25565b6101de610387366004611cb4565b610e36565b34801561039857600080fd5b5061014f6103a7366004611cd6565b610f7a565b60006001600160e01b03198216632483248360e11b14806103d157506103d182610fa8565b92915050565b6060600080546103e690611d09565b80601f016020809104026020016040519081016040528092919081815260200182805461041290611d09565b801561045f5780601f106104345761010080835404028352916020019161045f565b820191906000526020600020905b81548152906001019060200180831161044257829003601f168201915b5050505050905090565b600061047482610ff8565b506000828152600460205260409020546001600160a01b03166103d1565b61049d828233611031565b5050565b600754600854606091906000906104b89083611d59565b90506000808267ffffffffffffffff8111156104d6576104d6611b13565b60405190808252806020026020018201604052801561052f57816020015b6040805160a0810182526000808252602080830182905292820181905260608201819052608082015282526000199092019101816104f45790505b50905060005b848110156106155730600b600061054d846001611d6c565b81526020810191909152604001600020600201546001600160a01b03160361060d57600061057c826001611d6c565b6000818152600b6020908152604091829020825160a0810184528154815260018201546001600160a01b039081169382019390935260028201549092169282019290925260038201546060820152600482015460ff1615156080820152855192935090918590879081106105f2576105f2611d7f565b6020908102919091010152610608600186611d6c565b945050505b600101610535565b50949350505050565b600754606090600080805b838110156106795733600b6000610641846001611d6c565b81526020810191909152604001600020600201546001600160a01b0316036106715761066e600184611d6c565b92505b600101610629565b5060008267ffffffffffffffff81111561069557610695611b13565b6040519080825280602002602001820160405280156106ee57816020015b6040805160a0810182526000808252602080830182905292820181905260608201819052608082015282526000199092019101816106b35790505b50905060005b848110156106155733600b600061070c846001611d6c565b81526020810191909152604001600020600201546001600160a01b0316036107cc57600061073b826001611d6c565b6000818152600b6020908152604091829020825160a0810184528154815260018201546001600160a01b039081169382019390935260028201549092169282019290925260038201546060820152600482015460ff1615156080820152855192935090918590879081106107b1576107b1611d7f565b60209081029190910101526107c7600186611d6c565b945050505b6001016106f4565b6001600160a01b03821661080357604051633250574960e11b8152600060048201526024015b60405180910390fd5b600061081083833361103e565b9050836001600160a01b0316816001600160a01b03161461085e576040516364283d7b60e01b81526001600160a01b03808616600483015260248201849052821660448201526064016107fa565b50505050565b61087f83838360405180602001604052806000815250610b5d565b505050565b600754606090600080805b838110156108df5733600b60006108a7846001611d6c565b81526020810191909152604001600020600101546001600160a01b0316036108d7576108d4600184611d6c565b92505b60010161088f565b5060008267ffffffffffffffff8111156108fb576108fb611b13565b60405190808252806020026020018201604052801561095457816020015b6040805160a0810182526000808252602080830182905292820181905260608201819052608082015282526000199092019101816109195790505b50905060005b848110156106155733600b6000610972846001611d6c565b81526020810191909152604001600020600101546001600160a01b031603610a325760006109a1826001611d6c565b6000818152600b6020908152604091829020825160a0810184528154815260018201546001600160a01b039081169382019390935260028201549092169282019290925260038201546060820152600482015460ff161515608082015285519293509091859087908110610a1757610a17611d7f565b6020908102919091010152610a2d600186611d6c565b945050505b60010161095a565b60006103d182610ff8565b60006001600160a01b038216610a71576040516322718ad960e21b8152600060048201526024016107fa565b506001600160a01b031660009081526003602052604090205490565b6007805460009182610a9e83611d95565b9091555050600754610ab03382611137565b610aba818561119c565b610ac481846111ec565b9392505050565b6060600180546103e690611d09565b61049d33838361131d565b600a546001600160a01b03163314610b585760405162461bcd60e51b815260206004820152603060248201527f4f6e6c79206d61726b6574706c616365206f776e65722063616e20757064617460448201526f32903634b9ba34b73390383934b1b29760811b60648201526084016107fa565b600955565b610b688484846107d4565b61085e33858585856113bc565b6000818152600b6020526040902060038101546001909101546001600160a01b0316348214610c0e576040805162461bcd60e51b81526020600482015260248101919091527f506c65617365207375626d6974207468652061736b696e67207072696365206960448201527f6e206f7264657220746f20636f6d706c6574652074686520707572636861736560648201526084016107fa565b6000838152600b602052604081206002810180546001600160a01b0319908116331790915560048201805460ff19166001908117909155909101805490911690556008805491610c5d83611d95565b9190505550610c6d3033856114e7565b600a546009546040516001600160a01b039092169181156108fc0291906000818181858888f19350505050158015610ca9573d6000803e3d6000fd5b506040516001600160a01b038216903480156108fc02916000818181858888f19350505050158015610cdf573d6000803e3d6000fd5b50827f799adc24af9c24514bfbaa38e5334f4bad5ff6246c996cf3d67484534d97b340600033856001604051610d189493929190611dae565b60405180910390a2505050565b6060610d3082610ff8565b5060008281526006602052604081208054610d4a90611d09565b80601f0160208091040260200160405190810160405280929190818152602001828054610d7690611d09565b8015610dc35780601f10610d9857610100808354040283529160200191610dc3565b820191906000526020600020905b815481529060010190602001808311610da657829003601f168201915b505050505090506000610de160408051602081019091526000815290565b90508051600003610df3575092915050565b815115610e25578082604051602001610e0d929190611dd7565b60405160208183030381529060405292505050919050565b610e2e84611597565b949350505050565b6000828152600b60205260409020600201546001600160a01b03163314610eb25760405162461bcd60e51b815260206004820152602a60248201527f4f6e6c79206974656d206f776e65722063616e20706572666f726d20746869736044820152691037b832b930ba34b7b760b11b60648201526084016107fa565b6009543414610ed35760405162461bcd60e51b81526004016107fa90611e06565b6000828152600b6020526040812060048101805460ff19169055600381018390556001810180546001600160a01b0319908116331790915560029091018054909116301790556008805491610f2783611e4a565b9190505550610f373330846114e7565b817f799adc24af9c24514bfbaa38e5334f4bad5ff6246c996cf3d67484534d97b3403330846000604051610f6e9493929190611dae565b60405180910390a25050565b6001600160a01b03918216600090815260056020908152604080832093909416825291909152205460ff1690565b60006001600160e01b031982166380ac58cd60e01b1480610fd957506001600160e01b03198216635b5e139f60e01b145b806103d157506301ffc9a760e01b6001600160e01b03198316146103d1565b6000818152600260205260408120546001600160a01b0316806103d157604051637e27328960e01b8152600481018490526024016107fa565b61087f838383600161160b565b6000828152600260205260408120546001600160a01b039081169083161561106b5761106b818486611711565b6001600160a01b038116156110a95761108860008560008061160b565b6001600160a01b038116600090815260036020526040902080546000190190555b6001600160a01b038516156110d8576001600160a01b0385166000908152600360205260409020805460010190555b60008481526002602052604080822080546001600160a01b0319166001600160a01b0389811691821790925591518793918516917fddf252ad1be2c89b69c2b068fc378daa952ba7f163c4a11628f55a4df523b3ef91a4949350505050565b6001600160a01b03821661116157604051633250574960e11b8152600060048201526024016107fa565b600061116f8383600061103e565b90506001600160a01b0381161561087f576040516339e3563760e11b8152600060048201526024016107fa565b60008281526006602052604090206111b48282611ea8565b506040518281527ff8e1a15aba9398e019f0b49df1a4fde98ee17ae345cb5f6b5e2c27f5033e8ce79060200160405180910390a15050565b6000811161123c5760405162461bcd60e51b815260206004820152601c60248201527f5072696365206d757374206265206174206c656173742031207765690000000060448201526064016107fa565b600954341461125d5760405162461bcd60e51b81526004016107fa90611e06565b6040805160a0810182528381526000602080830182815233848601818152606086018881526001608088018181528b8852600b90965288872097518855935187850180546001600160a01b03199081166001600160a01b0393841617909155925160028901805490941691161790915551600386015591516004909401805460ff191694151594909417909355925185937fb640004f1d14576d0c209e240cad0410e0d8c0c33a09375861fbadae2588a98d93610f6e9392879190611dae565b6001600160a01b03821661134f57604051630b61174360e31b81526001600160a01b03831660048201526024016107fa565b6001600160a01b03838116600081815260056020908152604080832094871680845294825291829020805460ff191686151590811790915591519182527f17307eab39ab6107e8899845ad3d59bd9653f200f220920489ca2b5937696c31910160405180910390a3505050565b6001600160a01b0383163b156114e057604051630a85bd0160e11b81526001600160a01b0384169063150b7a02906113fe908890889087908790600401611f67565b6020604051808303816000875af1925050508015611439575060408051601f3d908101601f1916820190925261143691810190611fa4565b60015b6114a2573d808015611467576040519150601f19603f3d011682016040523d82523d6000602084013e61146c565b606091505b50805160000361149a57604051633250574960e11b81526001600160a01b03851660048201526024016107fa565b805181602001fd5b6001600160e01b03198116630a85bd0160e11b146114de57604051633250574960e11b81526001600160a01b03851660048201526024016107fa565b505b5050505050565b6001600160a01b03821661151157604051633250574960e11b8152600060048201526024016107fa565b600061151f8383600061103e565b90506001600160a01b03811661154b57604051637e27328960e01b8152600481018390526024016107fa565b836001600160a01b0316816001600160a01b03161461085e576040516364283d7b60e01b81526001600160a01b03808616600483015260248201849052821660448201526064016107fa565b60606115a282610ff8565b5060006115ba60408051602081019091526000815290565b905060008151116115da5760405180602001604052806000815250610ac4565b806115e484611775565b6040516020016115f5929190611dd7565b6040516020818303038152906040529392505050565b808061161f57506001600160a01b03821615155b156116e157600061162f84610ff8565b90506001600160a01b0383161580159061165b5750826001600160a01b0316816001600160a01b031614155b801561166e575061166c8184610f7a565b155b156116975760405163a9fbf51f60e01b81526001600160a01b03841660048201526024016107fa565b81156116df5783856001600160a01b0316826001600160a01b03167f8c5be1e5ebec7d5bd14f71427d1e84f3dd0314c0f7b2291e5b200ac8c7c3b92560405160405180910390a45b505b5050600090815260046020526040902080546001600160a01b0319166001600160a01b0392909216919091179055565b61171c838383611808565b61087f576001600160a01b03831661174a57604051637e27328960e01b8152600481018290526024016107fa565b60405163177e802f60e01b81526001600160a01b0383166004820152602481018290526044016107fa565b606060006117828361186b565b600101905060008167ffffffffffffffff8111156117a2576117a2611b13565b6040519080825280601f01601f1916602001820160405280156117cc576020820181803683370190505b5090508181016020015b600019016f181899199a1a9b1b9c1cb0b131b232b360811b600a86061a8153600a85049450846117d657509392505050565b60006001600160a01b03831615801590610e2e5750826001600160a01b0316846001600160a01b0316148061184257506118428484610f7a565b80610e2e5750506000908152600460205260409020546001600160a01b03908116911614919050565b60008072184f03e93ff9f4daa797ed6e38ed64bf6a1f0160401b83106118aa5772184f03e93ff9f4daa797ed6e38ed64bf6a1f0160401b830492506040015b6d04ee2d6d415b85acef810000000083106118d6576d04ee2d6d415b85acef8100000000830492506020015b662386f26fc1000083106118f457662386f26fc10000830492506010015b6305f5e100831061190c576305f5e100830492506008015b612710831061192057612710830492506004015b60648310611932576064830492506002015b600a83106103d15760010192915050565b6001600160e01b03198116811461195957600080fd5b50565b60006020828403121561196e57600080fd5b8135610ac481611943565b60005b8381101561199457818101518382015260200161197c565b50506000910152565b600081518084526119b5816020860160208601611979565b601f01601f19169290920160200192915050565b602081526000610ac4602083018461199d565b6000602082840312156119ee57600080fd5b5035919050565b80356001600160a01b0381168114611a0c57600080fd5b919050565b60008060408385031215611a2457600080fd5b611a2d836119f5565b946020939093013593505050565b602080825282518282018190526000918401906040840190835b81811015611ab0578351805184526020808201516001600160a01b039081168287015260408084015190911690860152606080830151908601526080918201511515918501919091529093019260a090920191600101611a55565b509095945050505050565b600080600060608486031215611ad057600080fd5b611ad9846119f5565b9250611ae7602085016119f5565b929592945050506040919091013590565b600060208284031215611b0a57600080fd5b610ac4826119f5565b634e487b7160e01b600052604160045260246000fd5b60008067ffffffffffffffff841115611b4457611b44611b13565b50604051601f19601f85018116603f0116810181811067ffffffffffffffff82111715611b7357611b73611b13565b604052838152905080828401851015611b8b57600080fd5b83836020830137600060208583010152509392505050565b60008060408385031215611bb657600080fd5b823567ffffffffffffffff811115611bcd57600080fd5b8301601f81018513611bde57600080fd5b611bed85823560208401611b29565b95602094909401359450505050565b60008060408385031215611c0f57600080fd5b611c18836119f5565b915060208301358015158114611c2d57600080fd5b809150509250929050565b60008060008060808587031215611c4e57600080fd5b611c57856119f5565b9350611c65602086016119f5565b925060408501359150606085013567ffffffffffffffff811115611c8857600080fd5b8501601f81018713611c9957600080fd5b611ca887823560208401611b29565b91505092959194509250565b60008060408385031215611cc757600080fd5b50508035926020909101359150565b60008060408385031215611ce957600080fd5b611cf2836119f5565b9150611d00602084016119f5565b90509250929050565b600181811c90821680611d1d57607f821691505b602082108103611d3d57634e487b7160e01b600052602260045260246000fd5b50919050565b634e487b7160e01b600052601160045260246000fd5b818103818111156103d1576103d1611d43565b808201808211156103d1576103d1611d43565b634e487b7160e01b600052603260045260246000fd5b600060018201611da757611da7611d43565b5060010190565b6001600160a01b0394851681529290931660208301526040820152901515606082015260800190565b60008351611de9818460208801611979565b835190830190611dfd818360208801611979565b01949350505050565b60208082526024908201527f5072696365206d75737420626520657175616c20746f206c697374696e6720706040820152637269636560e01b606082015260800190565b600081611e5957611e59611d43565b506000190190565b601f82111561087f57806000526020600020601f840160051c81016020851015611e885750805b601f840160051c820191505b818110156114e05760008155600101611e94565b815167ffffffffffffffff811115611ec257611ec2611b13565b611ed681611ed08454611d09565b84611e61565b6020601f821160018114611f0a5760008315611ef25750848201515b600019600385901b1c1916600184901b1784556114e0565b600084815260208120601f198516915b82811015611f3a5787850151825560209485019460019092019101611f1a565b5084821015611f585786840151600019600387901b60f8161c191681555b50505050600190811b01905550565b6001600160a01b0385811682528416602082015260408101839052608060608201819052600090611f9a9083018461199d565b9695505050505050565b600060208284031215611fb657600080fd5b8151610ac48161194356fea264697066735822122025c76afc312aeddb9981cf65f7e5624d8951efdb068f33b2e5957239a08e21c564736f6c634300081c0033",
  "linkReferences": {},
  "deployedLinkReferences": {}
}